{
  "contractName": "AdminContract",
  "abi": [
    {
      "inputs": [
        {
          "internalType": "address",
          "name": "customerAccount",
          "type": "address"
        }
      ],
      "name": "promoteCustomerToSeller",
      "outputs": [],
      "stateMutability": "nonpayable",
      "type": "function"
    }
  ],
  "bytecode": "0x608060405234801561001057600080fd5b50336000806101000a81548173ffffffffffffffffffffffffffffffffffffffff021916908373ffffffffffffffffffffffffffffffffffffffff16021790555061049f806100606000396000f3fe608060405234801561001057600080fd5b506004361061002b5760003560e01c80630216a01614610030575b600080fd5b61004a600480360381019061004591906102d8565b61004c565b005b600061005833826101e9565b610097576040517f08c379a000000000000000000000000000000000000000000000000000000000815260040161008e90610388565b60405180910390fd5b600160008373ffffffffffffffffffffffffffffffffffffffff1673ffffffffffffffffffffffffffffffffffffffff16815260200190815260200160002060008060038111156100eb576100ea6103a8565b5b60038111156100fd576100fc6103a8565b5b815260200190815260200160002060009054906101000a900460ff1615610159576040517f08c379a000000000000000000000000000000000000000000000000000000000815260040161015090610449565b60405180910390fd5b60018060008473ffffffffffffffffffffffffffffffffffffffff1673ffffffffffffffffffffffffffffffffffffffff16815260200190815260200160002060008060038111156101ae576101ad6103a8565b5b60038111156101c0576101bf6103a8565b5b815260200190815260200160002060006101000a81548160ff0219169083151502179055505050565b6000600160008473ffffffffffffffffffffffffffffffffffffffff1673ffffffffffffffffffffffffffffffffffffffff168152602001908152602001600020600083600381111561023f5761023e6103a8565b5b6003811115610251576102506103a8565b5b815260200190815260200160002060009054906101000a900460ff16905092915050565b600080fd5b600073ffffffffffffffffffffffffffffffffffffffff82169050919050565b60006102a58261027a565b9050919050565b6102b58161029a565b81146102c057600080fd5b50565b6000813590506102d2816102ac565b92915050565b6000602082840312156102ee576102ed610275565b5b60006102fc848285016102c3565b91505092915050565b600082825260208201905092915050565b7f596f7520646f6e2774206861766520656e6f756768207065726d697373696f6e60008201527f7320746f2063616c6c2074686973206d6574686f642e00000000000000000000602082015250565b6000610372603683610305565b915061037d82610316565b604082019050919050565b600060208201905081810360008301526103a181610365565b9050919050565b7f4e487b7100000000000000000000000000000000000000000000000000000000600052602160045260246000fd5b7f54686520757365722068617320616c726561647920686176652061646d696e2060008201527f7269676874732e00000000000000000000000000000000000000000000000000602082015250565b6000610433602783610305565b915061043e826103d7565b604082019050919050565b6000602082019050818103600083015261046281610426565b905091905056fea264697066735822122004b93bc5fcc90af0efaf7af8eb4ca45cd15ed1ef03ee7c62509ccf3be7e50dd764736f6c63430008090033",
  "immutableReferences": {},
  "source": "// SPDX-License-Identifier: MIT\npragma solidity >=0.4.22 <0.9.0;\n\nimport \"./Roles.sol\";\n\ncontract AdminContract is Roles {\n  function promoteCustomerToSeller(address customerAccount) external onlyRole(RolesEnum.Admin) {\n    require(!accountRoles[customerAccount][RolesEnum.Admin], 'The user has already have admin rights.');\n    accountRoles[customerAccount][RolesEnum.Admin] = true;\n  }\n}\n",
  "sourcePath": "/home/alek/Code/wholesale-dapp/contracts/Admin.sol",
  "compiler": {
    "name": "solc",
    "version": "0.8.9+commit.e5eed63a.Emscripten.clang"
  },
  "schemaVersion": "3.4.3",
  "updatedAt": "2021-11-20T08:37:04.273Z",
  "devdoc": {
    "kind": "dev",
    "methods": {},
    "version": 1
  },
  "userdoc": {
    "kind": "user",
    "methods": {},
    "version": 1
  }
}