{
  "contractName": "Bank",
  "abi": [
    {
      "stateMutability": "payable",
      "type": "fallback"
    },
    {
      "stateMutability": "payable",
      "type": "receive"
    },
    {
      "inputs": [
        {
          "internalType": "address",
          "name": "newBank",
          "type": "address"
        }
      ],
      "name": "setBank",
      "outputs": [],
      "stateMutability": "nonpayable",
      "type": "function"
    },
    {
      "inputs": [
        {
          "internalType": "uint256",
          "name": "amount",
          "type": "uint256"
        },
        {
          "internalType": "address payable",
          "name": "lender",
          "type": "address"
        }
      ],
      "name": "lendEth",
      "outputs": [],
      "stateMutability": "nonpayable",
      "type": "function"
    },
    {
      "inputs": [],
      "name": "getBalance",
      "outputs": [
        {
          "internalType": "uint256",
          "name": "",
          "type": "uint256"
        }
      ],
      "stateMutability": "view",
      "type": "function"
    }
  ],
  "bytecode": "0x608060405273adabc19112bd5c5e7fbb07bd60aa3c97b70708b9600160006101000a81548173ffffffffffffffffffffffffffffffffffffffff021916908373ffffffffffffffffffffffffffffffffffffffff16021790555034801561006557600080fd5b50336000806101000a81548173ffffffffffffffffffffffffffffffffffffffff021916908373ffffffffffffffffffffffffffffffffffffffff1602179055506104d2806100b56000396000f3fe6080604052600436106100385760003560e01c8063090d23b91461004157806312065fe01461006a57806369e1fc88146100955761003f565b3661003f57005b005b34801561004d57600080fd5b50610068600480360381019061006391906102ce565b6100be565b005b34801561007657600080fd5b5061007f61015a565b60405161008c9190610314565b60405180910390f35b3480156100a157600080fd5b506100bc60048036038101906100b79190610399565b610162565b005b60008054906101000a900473ffffffffffffffffffffffffffffffffffffffff1673ffffffffffffffffffffffffffffffffffffffff163373ffffffffffffffffffffffffffffffffffffffff161461011657600080fd5b80600160006101000a81548173ffffffffffffffffffffffffffffffffffffffff021916908373ffffffffffffffffffffffffffffffffffffffff16021790555050565b600047905090565b60008054906101000a900473ffffffffffffffffffffffffffffffffffffffff1673ffffffffffffffffffffffffffffffffffffffff163373ffffffffffffffffffffffffffffffffffffffff16146101ba57600080fd5b60008173ffffffffffffffffffffffffffffffffffffffff16836040516101e09061040a565b60006040518083038185875af1925050503d806000811461021d576040519150601f19603f3d011682016040523d82523d6000602084013e610222565b606091505b5050905080610266576040517f08c379a000000000000000000000000000000000000000000000000000000000815260040161025d9061047c565b60405180910390fd5b505050565b600080fd5b600073ffffffffffffffffffffffffffffffffffffffff82169050919050565b600061029b82610270565b9050919050565b6102ab81610290565b81146102b657600080fd5b50565b6000813590506102c8816102a2565b92915050565b6000602082840312156102e4576102e361026b565b5b60006102f2848285016102b9565b91505092915050565b6000819050919050565b61030e816102fb565b82525050565b60006020820190506103296000830184610305565b92915050565b610338816102fb565b811461034357600080fd5b50565b6000813590506103558161032f565b92915050565b600061036682610270565b9050919050565b6103768161035b565b811461038157600080fd5b50565b6000813590506103938161036d565b92915050565b600080604083850312156103b0576103af61026b565b5b60006103be85828601610346565b92505060206103cf85828601610384565b9150509250929050565b600081905092915050565b50565b60006103f46000836103d9565b91506103ff826103e4565b600082019050919050565b6000610415826103e7565b9150819050919050565b600082825260208201905092915050565b7f4661696c656420746f206c656e64204574686572000000000000000000000000600082015250565b600061046660148361041f565b915061047182610430565b602082019050919050565b6000602082019050818103600083015261049581610459565b905091905056fea264697066735822122051eab0729bcdd9ac1470aa3e0225063f08dbccd05173da0d373e9226e965597164736f6c63430008090033",
  "immutableReferences": {},
  "source": "// SPDX-License-Identifier: MIT\npragma solidity >=0.4.22 <0.9.0;\n\nimport \"./Ownable.sol\";\n\ninterface IBank {\n  function lendEth(uint256 amount, address payable lender) external;\n  function getBalance() external view returns (uint256);\n}\n\n\ncontract Bank is Ownable, IBank {\n    address private account = 0xAdabc19112Bd5C5e7FBB07bD60aa3c97b70708B9;\n\n    function setBank(address newBank) external onlyOwner {\n        account = newBank;\n    }\n\n    function lendEth(uint256 amount, address payable lender)\n        external\n        onlyOwner\n    {\n        (bool sent, ) = lender.call{value: amount}(\"\");\n        require(sent, \"Failed to lend Ether\");\n    }\n\n    function getBalance() external view returns (uint256) {\n        return address(this).balance;\n    }\n\n    // Function to receive Ether. msg.data must be empty\n    receive() external payable {}\n\n    // Fallback function is called when msg.data is not empty\n    fallback() external payable {}\n}\n\n",
  "sourcePath": "/home/alek/Code/wholesale-dapp/contracts/Bank.sol",
  "compiler": {
    "name": "solc",
    "version": "0.8.9+commit.e5eed63a.Emscripten.clang"
  },
  "schemaVersion": "3.4.3",
  "updatedAt": "2021-11-20T08:24:26.169Z",
  "devdoc": {
    "kind": "dev",
    "methods": {},
    "version": 1
  },
  "userdoc": {
    "kind": "user",
    "methods": {},
    "version": 1
  }
}